{
  "_format": "hh-sol-artifact-1",
  "contractName": "PatentRegistry",
  "sourceName": "contracts/Lock.sol",
  "abi": [
    {
      "anonymous": false,
      "inputs": [
        {
          "indexed": true,
          "internalType": "string",
          "name": "patentId",
          "type": "string"
        },
        {
          "indexed": true,
          "internalType": "address",
          "name": "oldOwner",
          "type": "address"
        },
        {
          "indexed": true,
          "internalType": "address",
          "name": "newOwner",
          "type": "address"
        },
        {
          "indexed": false,
          "internalType": "uint256",
          "name": "timestamp",
          "type": "uint256"
        }
      ],
      "name": "OwnershipTransferred",
      "type": "event"
    },
    {
      "anonymous": false,
      "inputs": [
        {
          "indexed": true,
          "internalType": "address",
          "name": "owner",
          "type": "address"
        },
        {
          "indexed": false,
          "internalType": "string",
          "name": "patentId",
          "type": "string"
        },
        {
          "indexed": false,
          "internalType": "string",
          "name": "ipfsHash",
          "type": "string"
        },
        {
          "indexed": false,
          "internalType": "uint256",
          "name": "timestamp",
          "type": "uint256"
        }
      ],
      "name": "PatentRegistered",
      "type": "event"
    },
    {
      "inputs": [],
      "name": "getAllPatents",
      "outputs": [
        {
          "components": [
            {
              "internalType": "string",
              "name": "patentId",
              "type": "string"
            },
            {
              "internalType": "string",
              "name": "title",
              "type": "string"
            },
            {
              "internalType": "string",
              "name": "abstractData",
              "type": "string"
            },
            {
              "internalType": "string",
              "name": "metadata",
              "type": "string"
            },
            {
              "internalType": "string",
              "name": "contentHash",
              "type": "string"
            },
            {
              "internalType": "string",
              "name": "ipfsHash",
              "type": "string"
            },
            {
              "internalType": "address",
              "name": "owner",
              "type": "address"
            },
            {
              "internalType": "uint256",
              "name": "timestamp",
              "type": "uint256"
            },
            {
              "internalType": "bool",
              "name": "exists",
              "type": "bool"
            }
          ],
          "internalType": "struct PatentRegistry.Patent[]",
          "name": "",
          "type": "tuple[]"
        }
      ],
      "stateMutability": "view",
      "type": "function"
    },
    {
      "inputs": [
        {
          "internalType": "string",
          "name": "_patentId",
          "type": "string"
        }
      ],
      "name": "getOwnershipHistoryWithTimestamps",
      "outputs": [
        {
          "internalType": "address[]",
          "name": "owners",
          "type": "address[]"
        },
        {
          "internalType": "uint256[]",
          "name": "timestamps",
          "type": "uint256[]"
        }
      ],
      "stateMutability": "view",
      "type": "function"
    },
    {
      "inputs": [
        {
          "internalType": "string",
          "name": "_patentId",
          "type": "string"
        }
      ],
      "name": "getPatentByPatentId",
      "outputs": [
        {
          "components": [
            {
              "internalType": "string",
              "name": "patentId",
              "type": "string"
            },
            {
              "internalType": "string",
              "name": "title",
              "type": "string"
            },
            {
              "internalType": "string",
              "name": "abstractData",
              "type": "string"
            },
            {
              "internalType": "string",
              "name": "metadata",
              "type": "string"
            },
            {
              "internalType": "string",
              "name": "contentHash",
              "type": "string"
            },
            {
              "internalType": "string",
              "name": "ipfsHash",
              "type": "string"
            },
            {
              "internalType": "address",
              "name": "owner",
              "type": "address"
            },
            {
              "internalType": "uint256",
              "name": "timestamp",
              "type": "uint256"
            },
            {
              "internalType": "bool",
              "name": "exists",
              "type": "bool"
            }
          ],
          "internalType": "struct PatentRegistry.Patent",
          "name": "",
          "type": "tuple"
        }
      ],
      "stateMutability": "view",
      "type": "function"
    },
    {
      "inputs": [
        {
          "internalType": "string",
          "name": "_contentHash",
          "type": "string"
        }
      ],
      "name": "getPatentIdByHash",
      "outputs": [
        {
          "internalType": "string",
          "name": "",
          "type": "string"
        }
      ],
      "stateMutability": "view",
      "type": "function"
    },
    {
      "inputs": [
        {
          "internalType": "address",
          "name": "_owner",
          "type": "address"
        }
      ],
      "name": "getPatentsByOwner",
      "outputs": [
        {
          "components": [
            {
              "internalType": "string",
              "name": "patentId",
              "type": "string"
            },
            {
              "internalType": "string",
              "name": "title",
              "type": "string"
            },
            {
              "internalType": "string",
              "name": "abstractData",
              "type": "string"
            },
            {
              "internalType": "string",
              "name": "metadata",
              "type": "string"
            },
            {
              "internalType": "string",
              "name": "contentHash",
              "type": "string"
            },
            {
              "internalType": "string",
              "name": "ipfsHash",
              "type": "string"
            },
            {
              "internalType": "address",
              "name": "owner",
              "type": "address"
            },
            {
              "internalType": "uint256",
              "name": "timestamp",
              "type": "uint256"
            },
            {
              "internalType": "bool",
              "name": "exists",
              "type": "bool"
            }
          ],
          "internalType": "struct PatentRegistry.Patent[]",
          "name": "",
          "type": "tuple[]"
        }
      ],
      "stateMutability": "view",
      "type": "function"
    },
    {
      "inputs": [
        {
          "internalType": "string",
          "name": "_title",
          "type": "string"
        },
        {
          "internalType": "string",
          "name": "_abstractData",
          "type": "string"
        },
        {
          "internalType": "string",
          "name": "_metadata",
          "type": "string"
        },
        {
          "internalType": "string",
          "name": "_contentHash",
          "type": "string"
        },
        {
          "internalType": "string",
          "name": "_ipfsHash",
          "type": "string"
        }
      ],
      "name": "registerPatent",
      "outputs": [
        {
          "internalType": "string",
          "name": "",
          "type": "string"
        }
      ],
      "stateMutability": "nonpayable",
      "type": "function"
    },
    {
      "inputs": [
        {
          "internalType": "string",
          "name": "_patentId",
          "type": "string"
        },
        {
          "internalType": "address",
          "name": "_newOwner",
          "type": "address"
        }
      ],
      "name": "transferOwnership",
      "outputs": [],
      "stateMutability": "nonpayable",
      "type": "function"
    }
  ],
  "bytecode": "0x608060405260008055348015601357600080fd5b5061339e806100236000396000f3fe608060405234801561001057600080fd5b506004361061007d5760003560e01c8063a25141bd1161005b578063a25141bd14610113578063c0e793c214610143578063f7e9ad6a1461015f578063fc8f39f51461017d5761007d565b806306465f0b146100825780630e32cf00146100b35780632655484e146100e3575b600080fd5b61009c60048036038101906100979190612130565b6101ad565b6040516100aa929190612331565b60405180910390f35b6100cd60048036038101906100c89190612130565b6104b8565b6040516100da91906123e7565b60405180910390f35b6100fd60048036038101906100f89190612130565b610568565b60405161010a9190612556565b60405180910390f35b61012d60048036038101906101289190612578565b6109f6565b60405161013a91906123e7565b60405180910390f35b61015d600480360381019061015891906126ab565b610cf3565b005b6101676112b8565b60405161017491906128b1565b60405180910390f35b610197600480360381019061019291906128d3565b611789565b6040516101a491906128b1565b60405180910390f35b6060806001836040516101c0919061293c565b908152602001604051809103902060080160009054906101000a900460ff1661021e576040517f08c379a00000000000000000000000000000000000000000000000000000000081526004016102159061299f565b60405180910390fd5b60018360405161022e919061293c565b908152602001604051809103902060060160009054906101000a900473ffffffffffffffffffffffffffffffffffffffff1673ffffffffffffffffffffffffffffffffffffffff163373ffffffffffffffffffffffffffffffffffffffff16146102cd576040517f08c379a00000000000000000000000000000000000000000000000000000000081526004016102c490612a31565b60405180910390fd5b60006004846040516102df919061293c565b90815260200160405180910390208054905090508067ffffffffffffffff81111561030d5761030c612005565b5b60405190808252806020026020018201604052801561033b5781602001602082028036833780820191505090505b5092508067ffffffffffffffff81111561035857610357612005565b5b6040519080825280602002602001820160405280156103865781602001602082028036833780820191505090505b50915060005b818110156104b1576004856040516103a4919061293c565b908152602001604051809103902081815481106103c4576103c3612a51565b5b906000526020600020906002020160000160009054906101000a900473ffffffffffffffffffffffffffffffffffffffff1684828151811061040957610408612a51565b5b602002602001019073ffffffffffffffffffffffffffffffffffffffff16908173ffffffffffffffffffffffffffffffffffffffff1681525050600485604051610453919061293c565b9081526020016040518091039020818154811061047357610472612a51565b5b90600052602060002090600202016001015483828151811061049857610497612a51565b5b602002602001018181525050808060010191505061038c565b5050915091565b60606002826040516104ca919061293c565b908152602001604051809103902080546104e390612aaf565b80601f016020809104026020016040519081016040528092919081815260200182805461050f90612aaf565b801561055c5780601f106105315761010080835404028352916020019161055c565b820191906000526020600020905b81548152906001019060200180831161053f57829003601f168201915b50505050509050919050565b610570611f15565b600182604051610580919061293c565b908152602001604051809103902060080160009054906101000a900460ff166105de576040517f08c379a00000000000000000000000000000000000000000000000000000000081526004016105d59061299f565b60405180910390fd5b6001826040516105ee919061293c565b90815260200160405180910390206040518061012001604052908160008201805461061890612aaf565b80601f016020809104026020016040519081016040528092919081815260200182805461064490612aaf565b80156106915780601f1061066657610100808354040283529160200191610691565b820191906000526020600020905b81548152906001019060200180831161067457829003601f168201915b505050505081526020016001820180546106aa90612aaf565b80601f01602080910402602001604051908101604052809291908181526020018280546106d690612aaf565b80156107235780601f106106f857610100808354040283529160200191610723565b820191906000526020600020905b81548152906001019060200180831161070657829003601f168201915b5050505050815260200160028201805461073c90612aaf565b80601f016020809104026020016040519081016040528092919081815260200182805461076890612aaf565b80156107b55780601f1061078a576101008083540402835291602001916107b5565b820191906000526020600020905b81548152906001019060200180831161079857829003601f168201915b505050505081526020016003820180546107ce90612aaf565b80601f01602080910402602001604051908101604052809291908181526020018280546107fa90612aaf565b80156108475780601f1061081c57610100808354040283529160200191610847565b820191906000526020600020905b81548152906001019060200180831161082a57829003601f168201915b5050505050815260200160048201805461086090612aaf565b80601f016020809104026020016040519081016040528092919081815260200182805461088c90612aaf565b80156108d95780601f106108ae576101008083540402835291602001916108d9565b820191906000526020600020905b8154815290600101906020018083116108bc57829003601f168201915b505050505081526020016005820180546108f290612aaf565b80601f016020809104026020016040519081016040528092919081815260200182805461091e90612aaf565b801561096b5780601f106109405761010080835404028352916020019161096b565b820191906000526020600020905b81548152906001019060200180831161094e57829003601f168201915b505050505081526020016006820160009054906101000a900473ffffffffffffffffffffffffffffffffffffffff1673ffffffffffffffffffffffffffffffffffffffff1673ffffffffffffffffffffffffffffffffffffffff168152602001600782015481526020016008820160009054906101000a900460ff1615151515815250509050919050565b60606000610a02611d65565b90506000600182604051610a16919061293c565b9081526020016040518091039020905081816000019081610a379190612c8c565b5087816001019081610a499190612c8c565b5086816002019081610a5b9190612c8c565b5085816003019081610a6d9190612c8c565b5084816004019081610a7f9190612c8c565b5083816005019081610a919190612c8c565b50338160060160006101000a81548173ffffffffffffffffffffffffffffffffffffffff021916908373ffffffffffffffffffffffffffffffffffffffff16021790555042816007018190555060018160080160006101000a81548160ff02191690831515021790555081600286604051610b0c919061293c565b90815260200160405180910390209081610b269190612c8c565b50600360003373ffffffffffffffffffffffffffffffffffffffff1673ffffffffffffffffffffffffffffffffffffffff16815260200190815260200160002082908060018154018082558091505060019003906000526020600020016000909190919091509081610b989190612c8c565b50600582908060018154018082558091505060019003906000526020600020016000909190919091509081610bcd9190612c8c565b50600482604051610bde919061293c565b908152602001604051809103902060405180604001604052803373ffffffffffffffffffffffffffffffffffffffff16815260200142815250908060018154018082558091505060019003906000526020600020906002020160009091909190915060008201518160000160006101000a81548173ffffffffffffffffffffffffffffffffffffffff021916908373ffffffffffffffffffffffffffffffffffffffff1602179055506020820151816001015550503373ffffffffffffffffffffffffffffffffffffffff167f1ff8b413bf45df505b1cd159275edfdb2cf314c38e09cd190a3dac3a5b1c4b97838642604051610cdd93929190612d6d565b60405180910390a2819250505095945050505050565b81600181604051610d04919061293c565b908152602001604051809103902060080160009054906101000a900460ff16610d62576040517f08c379a0000000000000000000000000000000000000000000000000000000008152600401610d599061299f565b60405180910390fd5b3373ffffffffffffffffffffffffffffffffffffffff16600182604051610d89919061293c565b908152602001604051809103902060060160009054906101000a900473ffffffffffffffffffffffffffffffffffffffff1673ffffffffffffffffffffffffffffffffffffffff1614610e11576040517f08c379a0000000000000000000000000000000000000000000000000000000008152600401610e0890612e24565b60405180910390fd5b600073ffffffffffffffffffffffffffffffffffffffff168273ffffffffffffffffffffffffffffffffffffffff1603610e80576040517f08c379a0000000000000000000000000000000000000000000000000000000008152600401610e7790612e90565b60405180910390fd5b600183604051610e90919061293c565b908152602001604051809103902060060160009054906101000a900473ffffffffffffffffffffffffffffffffffffffff1673ffffffffffffffffffffffffffffffffffffffff163373ffffffffffffffffffffffffffffffffffffffff1614610f2f576040517f08c379a0000000000000000000000000000000000000000000000000000000008152600401610f2690612a31565b60405180910390fd5b6000600184604051610f41919061293c565b908152602001604051809103902060060160009054906101000a900473ffffffffffffffffffffffffffffffffffffffff16905082600185604051610f86919061293c565b908152602001604051809103902060060160006101000a81548173ffffffffffffffffffffffffffffffffffffffff021916908373ffffffffffffffffffffffffffffffffffffffff1602179055506000600360008373ffffffffffffffffffffffffffffffffffffffff1673ffffffffffffffffffffffffffffffffffffffff168152602001908152602001600020905060005b81805490508110156110fe57858051906020012082828154811061104257611041612a51565b5b906000526020600020016040516110599190612f53565b6040518091039020036110f15781600183805490506110789190612f99565b8154811061108957611088612a51565b5b906000526020600020018282815481106110a6576110a5612a51565b5b9060005260206000200190816110bc9190612ff8565b50818054806110ce576110cd6130e0565b5b6001900381819060005260206000200160006110ea9190611f79565b90556110fe565b808060010191505061101b565b50600360008573ffffffffffffffffffffffffffffffffffffffff1673ffffffffffffffffffffffffffffffffffffffff168152602001908152602001600020859080600181540180825580915050600190039060005260206000200160009091909190915090816111709190612c8c565b50600485604051611181919061293c565b908152602001604051809103902060405180604001604052808673ffffffffffffffffffffffffffffffffffffffff16815260200142815250908060018154018082558091505060019003906000526020600020906002020160009091909190915060008201518160000160006101000a81548173ffffffffffffffffffffffffffffffffffffffff021916908373ffffffffffffffffffffffffffffffffffffffff1602179055506020820151816001015550508373ffffffffffffffffffffffffffffffffffffffff168273ffffffffffffffffffffffffffffffffffffffff1686604051611272919061293c565b60405180910390207fe9bf8dbaa7eb0b6910401512e60afcae7734db09df0b7291b4a16e630d796e56426040516112a9919061310f565b60405180910390a45050505050565b60606000600580549050905060008167ffffffffffffffff8111156112e0576112df612005565b5b60405190808252806020026020018201604052801561131957816020015b611306611f15565b8152602001906001900390816112fe5790505b50905060005b828110156117805760016005828154811061133d5761133c612a51565b5b9060005260206000200160405161135491906131ad565b90815260200160405180910390206040518061012001604052908160008201805461137e90612aaf565b80601f01602080910402602001604051908101604052809291908181526020018280546113aa90612aaf565b80156113f75780601f106113cc576101008083540402835291602001916113f7565b820191906000526020600020905b8154815290600101906020018083116113da57829003601f168201915b5050505050815260200160018201805461141090612aaf565b80601f016020809104026020016040519081016040528092919081815260200182805461143c90612aaf565b80156114895780601f1061145e57610100808354040283529160200191611489565b820191906000526020600020905b81548152906001019060200180831161146c57829003601f168201915b505050505081526020016002820180546114a290612aaf565b80601f01602080910402602001604051908101604052809291908181526020018280546114ce90612aaf565b801561151b5780601f106114f05761010080835404028352916020019161151b565b820191906000526020600020905b8154815290600101906020018083116114fe57829003601f168201915b5050505050815260200160038201805461153490612aaf565b80601f016020809104026020016040519081016040528092919081815260200182805461156090612aaf565b80156115ad5780601f10611582576101008083540402835291602001916115ad565b820191906000526020600020905b81548152906001019060200180831161159057829003601f168201915b505050505081526020016004820180546115c690612aaf565b80601f01602080910402602001604051908101604052809291908181526020018280546115f290612aaf565b801561163f5780601f106116145761010080835404028352916020019161163f565b820191906000526020600020905b81548152906001019060200180831161162257829003601f168201915b5050505050815260200160058201805461165890612aaf565b80601f016020809104026020016040519081016040528092919081815260200182805461168490612aaf565b80156116d15780601f106116a6576101008083540402835291602001916116d1565b820191906000526020600020905b8154815290600101906020018083116116b457829003601f168201915b505050505081526020016006820160009054906101000a900473ffffffffffffffffffffffffffffffffffffffff1673ffffffffffffffffffffffffffffffffffffffff1673ffffffffffffffffffffffffffffffffffffffff168152602001600782015481526020016008820160009054906101000a900460ff16151515158152505082828151811061176857611767612a51565b5b6020026020010181905250808060010191505061131f565b50809250505090565b60606000600360008473ffffffffffffffffffffffffffffffffffffffff1673ffffffffffffffffffffffffffffffffffffffff16815260200190815260200160002080549050905060008167ffffffffffffffff8111156117ee576117ed612005565b5b60405190808252806020026020018201604052801561182757816020015b611814611f15565b81526020019060019003908161180c5790505b50905060005b82811015611d5a576000600360008773ffffffffffffffffffffffffffffffffffffffff1673ffffffffffffffffffffffffffffffffffffffff168152602001908152602001600020828154811061188857611887612a51565b5b90600052602060002001805461189d90612aaf565b80601f01602080910402602001604051908101604052809291908181526020018280546118c990612aaf565b80156119165780601f106118eb57610100808354040283529160200191611916565b820191906000526020600020905b8154815290600101906020018083116118f957829003601f168201915b5050505050905060018160405161192d919061293c565b90815260200160405180910390206040518061012001604052908160008201805461195790612aaf565b80601f016020809104026020016040519081016040528092919081815260200182805461198390612aaf565b80156119d05780601f106119a5576101008083540402835291602001916119d0565b820191906000526020600020905b8154815290600101906020018083116119b357829003601f168201915b505050505081526020016001820180546119e990612aaf565b80601f0160208091040260200160405190810160405280929190818152602001828054611a1590612aaf565b8015611a625780601f10611a3757610100808354040283529160200191611a62565b820191906000526020600020905b815481529060010190602001808311611a4557829003601f168201915b50505050508152602001600282018054611a7b90612aaf565b80601f0160208091040260200160405190810160405280929190818152602001828054611aa790612aaf565b8015611af45780601f10611ac957610100808354040283529160200191611af4565b820191906000526020600020905b815481529060010190602001808311611ad757829003601f168201915b50505050508152602001600382018054611b0d90612aaf565b80601f0160208091040260200160405190810160405280929190818152602001828054611b3990612aaf565b8015611b865780601f10611b5b57610100808354040283529160200191611b86565b820191906000526020600020905b815481529060010190602001808311611b6957829003601f168201915b50505050508152602001600482018054611b9f90612aaf565b80601f0160208091040260200160405190810160405280929190818152602001828054611bcb90612aaf565b8015611c185780601f10611bed57610100808354040283529160200191611c18565b820191906000526020600020905b815481529060010190602001808311611bfb57829003601f168201915b50505050508152602001600582018054611c3190612aaf565b80601f0160208091040260200160405190810160405280929190818152602001828054611c5d90612aaf565b8015611caa5780601f10611c7f57610100808354040283529160200191611caa565b820191906000526020600020905b815481529060010190602001808311611c8d57829003601f168201915b505050505081526020016006820160009054906101000a900473ffffffffffffffffffffffffffffffffffffffff1673ffffffffffffffffffffffffffffffffffffffff1673ffffffffffffffffffffffffffffffffffffffff168152602001600782015481526020016008820160009054906101000a900460ff161515151581525050838381518110611d4157611d40612a51565b5b602002602001018190525050808060010191505061182d565b508092505050919050565b60606001600080828254611d7991906131c4565b92505081905550611d8b600054611daf565b604051602001611d9b9190613244565b604051602081830303815290604052905090565b606060008203611df6576040518060400160405280600181526020017f30000000000000000000000000000000000000000000000000000000000000008152509050611f10565b600082905060005b60008214611e28578080611e1190613266565b915050600a82611e2191906132dd565b9150611dfe565b60008167ffffffffffffffff811115611e4457611e43612005565b5b6040519080825280601f01601f191660200182016040528015611e765781602001600182028036833780820191505090505b50905060008290508593505b60008414611f0857600a84611e97919061330e565b6030611ea391906131c4565b60f81b8282611eb19061333f565b92508281518110611ec557611ec4612a51565b5b60200101907effffffffffffffffffffffffffffffffffffffffffffffffffffffffffffff1916908160001a905350600a84611f0191906132dd565b9350611e82565b819450505050505b919050565b604051806101200160405280606081526020016060815260200160608152602001606081526020016060815260200160608152602001600073ffffffffffffffffffffffffffffffffffffffff168152602001600081526020016000151581525090565b508054611f8590612aaf565b6000825580601f10611f975750611fb6565b601f016020900490600052602060002090810190611fb59190611fb9565b5b50565b5b80821115611fd2576000816000905550600101611fba565b5090565b6000604051905090565b600080fd5b600080fd5b600080fd5b600080fd5b6000601f19601f8301169050919050565b7f4e487b7100000000000000000000000000000000000000000000000000000000600052604160045260246000fd5b61203d82611ff4565b810181811067ffffffffffffffff8211171561205c5761205b612005565b5b80604052505050565b600061206f611fd6565b905061207b8282612034565b919050565b600067ffffffffffffffff82111561209b5761209a612005565b5b6120a482611ff4565b9050602081019050919050565b82818337600083830152505050565b60006120d36120ce84612080565b612065565b9050828152602081018484840111156120ef576120ee611fef565b5b6120fa8482856120b1565b509392505050565b600082601f83011261211757612116611fea565b5b81356121278482602086016120c0565b91505092915050565b60006020828403121561214657612145611fe0565b5b600082013567ffffffffffffffff81111561216457612163611fe5565b5b61217084828501612102565b91505092915050565b600081519050919050565b600082825260208201905092915050565b6000819050602082019050919050565b600073ffffffffffffffffffffffffffffffffffffffff82169050919050565b60006121d0826121a5565b9050919050565b6121e0816121c5565b82525050565b60006121f283836121d7565b60208301905092915050565b6000602082019050919050565b600061221682612179565b6122208185612184565b935061222b83612195565b8060005b8381101561225c57815161224388826121e6565b975061224e836121fe565b92505060018101905061222f565b5085935050505092915050565b600081519050919050565b600082825260208201905092915050565b6000819050602082019050919050565b6000819050919050565b6122a881612295565b82525050565b60006122ba838361229f565b60208301905092915050565b6000602082019050919050565b60006122de82612269565b6122e88185612274565b93506122f383612285565b8060005b8381101561232457815161230b88826122ae565b9750612316836122c6565b9250506001810190506122f7565b5085935050505092915050565b6000604082019050818103600083015261234b818561220b565b9050818103602083015261235f81846122d3565b90509392505050565b600081519050919050565b600082825260208201905092915050565b60005b838110156123a2578082015181840152602081019050612387565b60008484015250505050565b60006123b982612368565b6123c38185612373565b93506123d3818560208601612384565b6123dc81611ff4565b840191505092915050565b6000602082019050818103600083015261240181846123ae565b905092915050565b600082825260208201905092915050565b600061242582612368565b61242f8185612409565b935061243f818560208601612384565b61244881611ff4565b840191505092915050565b60008115159050919050565b61246881612453565b82525050565b600061012083016000830151848203600086015261248c828261241a565b915050602083015184820360208601526124a6828261241a565b915050604083015184820360408601526124c0828261241a565b915050606083015184820360608601526124da828261241a565b915050608083015184820360808601526124f4828261241a565b91505060a083015184820360a086015261250e828261241a565b91505060c083015161252360c08601826121d7565b5060e083015161253660e086018261229f565b5061010083015161254b61010086018261245f565b508091505092915050565b60006020820190508181036000830152612570818461246e565b905092915050565b600080600080600060a0868803121561259457612593611fe0565b5b600086013567ffffffffffffffff8111156125b2576125b1611fe5565b5b6125be88828901612102565b955050602086013567ffffffffffffffff8111156125df576125de611fe5565b5b6125eb88828901612102565b945050604086013567ffffffffffffffff81111561260c5761260b611fe5565b5b61261888828901612102565b935050606086013567ffffffffffffffff81111561263957612638611fe5565b5b61264588828901612102565b925050608086013567ffffffffffffffff81111561266657612665611fe5565b5b61267288828901612102565b9150509295509295909350565b612688816121c5565b811461269357600080fd5b50565b6000813590506126a58161267f565b92915050565b600080604083850312156126c2576126c1611fe0565b5b600083013567ffffffffffffffff8111156126e0576126df611fe5565b5b6126ec85828601612102565b92505060206126fd85828601612696565b9150509250929050565b600081519050919050565b600082825260208201905092915050565b6000819050602082019050919050565b6000610120830160008301518482036000860152612751828261241a565b9150506020830151848203602086015261276b828261241a565b91505060408301518482036040860152612785828261241a565b9150506060830151848203606086015261279f828261241a565b915050608083015184820360808601526127b9828261241a565b91505060a083015184820360a08601526127d3828261241a565b91505060c08301516127e860c08601826121d7565b5060e08301516127fb60e086018261229f565b5061010083015161281061010086018261245f565b508091505092915050565b60006128278383612733565b905092915050565b6000602082019050919050565b600061284782612707565b6128518185612712565b93508360208202850161286385612723565b8060005b8581101561289f5784840389528151612880858261281b565b945061288b8361282f565b925060208a01995050600181019050612867565b50829750879550505050505092915050565b600060208201905081810360008301526128cb818461283c565b905092915050565b6000602082840312156128e9576128e8611fe0565b5b60006128f784828501612696565b91505092915050565b600081905092915050565b600061291682612368565b6129208185612900565b9350612930818560208601612384565b80840191505092915050565b6000612948828461290b565b915081905092915050565b7f506174656e7420646f6573206e6f742065786973740000000000000000000000600082015250565b6000612989601583612373565b915061299482612953565b602082019050919050565b600060208201905081810360008301526129b88161297c565b9050919050565b7f4163636573732064656e6965643a204e6f74207468652063757272656e74206f60008201527f776e657200000000000000000000000000000000000000000000000000000000602082015250565b6000612a1b602483612373565b9150612a26826129bf565b604082019050919050565b60006020820190508181036000830152612a4a81612a0e565b9050919050565b7f4e487b7100000000000000000000000000000000000000000000000000000000600052603260045260246000fd5b7f4e487b7100000000000000000000000000000000000000000000000000000000600052602260045260246000fd5b60006002820490506001821680612ac757607f821691505b602082108103612ada57612ad9612a80565b5b50919050565b60008190508160005260206000209050919050565b60006020601f8301049050919050565b600082821b905092915050565b600060088302612b427fffffffffffffffffffffffffffffffffffffffffffffffffffffffffffffffff82612b05565b612b4c8683612b05565b95508019841693508086168417925050509392505050565b6000819050919050565b6000612b89612b84612b7f84612295565b612b64565b612295565b9050919050565b6000819050919050565b612ba383612b6e565b612bb7612baf82612b90565b848454612b12565b825550505050565b600090565b612bcc612bbf565b612bd7818484612b9a565b505050565b5b81811015612bfb57612bf0600082612bc4565b600181019050612bdd565b5050565b601f821115612c4057612c1181612ae0565b612c1a84612af5565b81016020851015612c29578190505b612c3d612c3585612af5565b830182612bdc565b50505b505050565b600082821c905092915050565b6000612c6360001984600802612c45565b1980831691505092915050565b6000612c7c8383612c52565b9150826002028217905092915050565b612c9582612368565b67ffffffffffffffff811115612cae57612cad612005565b5b612cb88254612aaf565b612cc3828285612bff565b600060209050601f831160018114612cf65760008415612ce4578287015190505b612cee8582612c70565b865550612d56565b601f198416612d0486612ae0565b60005b82811015612d2c57848901518255600182019150602085019450602081019050612d07565b86831015612d495784890151612d45601f891682612c52565b8355505b6001600288020188555050505b505050505050565b612d6781612295565b82525050565b60006060820190508181036000830152612d8781866123ae565b90508181036020830152612d9b81856123ae565b9050612daa6040830184612d5e565b949350505050565b7f4f6e6c792074686520706174656e74206f776e65722063616e20706572666f7260008201527f6d207468697320616374696f6e00000000000000000000000000000000000000602082015250565b6000612e0e602d83612373565b9150612e1982612db2565b604082019050919050565b60006020820190508181036000830152612e3d81612e01565b9050919050565b7f496e76616c6964206e6577206f776e6572206164647265737300000000000000600082015250565b6000612e7a601983612373565b9150612e8582612e44565b602082019050919050565b60006020820190508181036000830152612ea981612e6d565b9050919050565b600081905092915050565b60008190508160005260206000209050919050565b60008154612edd81612aaf565b612ee78186612eb0565b94506001821660008114612f025760018114612f1757612f4a565b60ff1983168652811515820286019350612f4a565b612f2085612ebb565b60005b83811015612f4257815481890152600182019150602081019050612f23565b838801955050505b50505092915050565b6000612f5f8284612ed0565b915081905092915050565b7f4e487b7100000000000000000000000000000000000000000000000000000000600052601160045260246000fd5b6000612fa482612295565b9150612faf83612295565b9250828203905081811115612fc757612fc6612f6a565b5b92915050565b600081549050612fdc81612aaf565b9050919050565b60008190508160005260206000209050919050565b8181036130065750506130de565b61300f82612fcd565b67ffffffffffffffff81111561302857613027612005565b5b6130328254612aaf565b61303d828285612bff565b6000601f83116001811461306c576000841561305a578287015490505b6130648582612c70565b8655506130d7565b601f19841661307a87612fe3565b965061308586612ae0565b60005b828110156130ad57848901548255600182019150600185019450602081019050613088565b868310156130ca57848901546130c6601f891682612c52565b8355505b6001600288020188555050505b5050505050505b565b7f4e487b7100000000000000000000000000000000000000000000000000000000600052603160045260246000fd5b60006020820190506131246000830184612d5e565b92915050565b6000815461313781612aaf565b6131418186612900565b9450600182166000811461315c5760018114613171576131a4565b60ff19831686528115158202860193506131a4565b61317a85612ae0565b60005b8381101561319c5781548189015260018201915060208101905061317d565b838801955050505b50505092915050565b60006131b9828461312a565b915081905092915050565b60006131cf82612295565b91506131da83612295565b92508282019050808211156131f2576131f1612f6a565b5b92915050565b7f4950522d00000000000000000000000000000000000000000000000000000000600082015250565b600061322e600483612900565b9150613239826131f8565b600482019050919050565b600061324f82613221565b915061325b828461290b565b915081905092915050565b600061327182612295565b91507fffffffffffffffffffffffffffffffffffffffffffffffffffffffffffffffff82036132a3576132a2612f6a565b5b600182019050919050565b7f4e487b7100000000000000000000000000000000000000000000000000000000600052601260045260246000fd5b60006132e882612295565b91506132f383612295565b925082613303576133026132ae565b5b828204905092915050565b600061331982612295565b915061332483612295565b925082613334576133336132ae565b5b828206905092915050565b600061334a82612295565b91506000820361335d5761335c612f6a565b5b60018203905091905056fea264697066735822122057db9d48662427723abc17be0f08eae0472d1254528005729768c57f36ca265b64736f6c634300081c0033",
  "linkReferences": {},
  "deployedLinkReferences": {}
}