{
  "_format": "hh-sol-artifact-1",
  "contractName": "PatentRegistry",
  "sourceName": "contracts/Lock.sol",
  "abi": [
    {
      "anonymous": false,
      "inputs": [
        {
          "indexed": true,
          "internalType": "address",
          "name": "owner",
          "type": "address"
        },
        {
          "indexed": false,
          "internalType": "string",
          "name": "contentHash",
          "type": "string"
        },
        {
          "indexed": false,
          "internalType": "string",
          "name": "ipfsHash",
          "type": "string"
        },
        {
          "indexed": false,
          "internalType": "uint256",
          "name": "timestamp",
          "type": "uint256"
        }
      ],
      "name": "PatentRegistered",
      "type": "event"
    },
    {
      "inputs": [],
      "name": "getAllPatents",
      "outputs": [
        {
          "internalType": "string[]",
          "name": "titles",
          "type": "string[]"
        },
        {
          "internalType": "string[]",
          "name": "abstracts",
          "type": "string[]"
        },
        {
          "internalType": "string[]",
          "name": "metadataList",
          "type": "string[]"
        },
        {
          "internalType": "string[]",
          "name": "contentHashes",
          "type": "string[]"
        },
        {
          "internalType": "string[]",
          "name": "ipfsHashes",
          "type": "string[]"
        },
        {
          "internalType": "address[]",
          "name": "owners",
          "type": "address[]"
        },
        {
          "internalType": "uint256[]",
          "name": "timestamps",
          "type": "uint256[]"
        }
      ],
      "stateMutability": "view",
      "type": "function"
    },
    {
      "inputs": [
        {
          "internalType": "address",
          "name": "_owner",
          "type": "address"
        }
      ],
      "name": "getPatentsByOwner",
      "outputs": [
        {
          "internalType": "string[]",
          "name": "titles",
          "type": "string[]"
        },
        {
          "internalType": "string[]",
          "name": "abstracts",
          "type": "string[]"
        },
        {
          "internalType": "string[]",
          "name": "metadataList",
          "type": "string[]"
        },
        {
          "internalType": "string[]",
          "name": "contentHashes",
          "type": "string[]"
        },
        {
          "internalType": "string[]",
          "name": "ipfsHashes",
          "type": "string[]"
        },
        {
          "internalType": "uint256[]",
          "name": "timestamps",
          "type": "uint256[]"
        }
      ],
      "stateMutability": "view",
      "type": "function"
    },
    {
      "inputs": [
        {
          "internalType": "string",
          "name": "_title",
          "type": "string"
        },
        {
          "internalType": "string",
          "name": "_abstractData",
          "type": "string"
        },
        {
          "internalType": "string",
          "name": "_metadata",
          "type": "string"
        },
        {
          "internalType": "string",
          "name": "_contentHash",
          "type": "string"
        },
        {
          "internalType": "string",
          "name": "_ipfsHash",
          "type": "string"
        }
      ],
      "name": "registerPatent",
      "outputs": [],
      "stateMutability": "nonpayable",
      "type": "function"
    }
  ],
  "bytecode": "0x6080604052348015600f57600080fd5b50611e408061001f6000396000f3fe608060405234801561001057600080fd5b50600436106100415760003560e01c8063a25141bd14610046578063f7e9ad6a14610062578063fc8f39f514610086575b600080fd5b610060600480360381019061005b919061141c565b6100bb565b005b61006a610383565b60405161007d979695949392919061181c565b60405180910390f35b6100a0600480360381019061009b91906118e8565b610b35565b6040516100b296959493929190611915565b60405180910390f35b6000826040516100cb91906119dc565b908152602001604051809103902060070160009054906101000a900460ff161561012a576040517f08c379a000000000000000000000000000000000000000000000000000000000815260040161012190611a50565b60405180910390fd5b60006040518061010001604052808781526020018681526020018581526020018481526020018381526020013373ffffffffffffffffffffffffffffffffffffffff1681526020014281526020016001151581525090508060008460405161019291906119dc565b908152602001604051809103902060008201518160000190816101b59190611c7c565b5060208201518160010190816101cb9190611c7c565b5060408201518160020190816101e19190611c7c565b5060608201518160030190816101f79190611c7c565b50608082015181600401908161020d9190611c7c565b5060a08201518160050160006101000a81548173ffffffffffffffffffffffffffffffffffffffff021916908373ffffffffffffffffffffffffffffffffffffffff16021790555060c0820151816006015560e08201518160070160006101000a81548160ff021916908315150217905550905050600160003373ffffffffffffffffffffffffffffffffffffffff1673ffffffffffffffffffffffffffffffffffffffff168152602001908152602001600020839080600181540180825580915050600190039060005260206000200160009091909190915090816102f39190611c7c565b506002839080600181540180825580915050600190039060005260206000200160009091909190915090816103289190611c7c565b503373ffffffffffffffffffffffffffffffffffffffff167f1ff8b413bf45df505b1cd159275edfdb2cf314c38e09cd190a3dac3a5b1c4b9784844260405161037393929190611d96565b60405180910390a2505050505050565b6060806060806060806060600060028054905090508067ffffffffffffffff8111156103b2576103b16112f1565b5b6040519080825280602002602001820160405280156103e557816020015b60608152602001906001900390816103d05790505b5097508067ffffffffffffffff811115610402576104016112f1565b5b60405190808252806020026020018201604052801561043557816020015b60608152602001906001900390816104205790505b5096508067ffffffffffffffff811115610452576104516112f1565b5b60405190808252806020026020018201604052801561048557816020015b60608152602001906001900390816104705790505b5095508067ffffffffffffffff8111156104a2576104a16112f1565b5b6040519080825280602002602001820160405280156104d557816020015b60608152602001906001900390816104c05790505b5094508067ffffffffffffffff8111156104f2576104f16112f1565b5b60405190808252806020026020018201604052801561052557816020015b60608152602001906001900390816105105790505b5093508067ffffffffffffffff811115610542576105416112f1565b5b6040519080825280602002602001820160405280156105705781602001602082028036833780820191505090505b5092508067ffffffffffffffff81111561058d5761058c6112f1565b5b6040519080825280602002602001820160405280156105bb5781602001602082028036833780820191505090505b50915060005b81811015610b2a576000600282815481106105df576105de611ddb565b5b9060005260206000200180546105f490611a9f565b80601f016020809104026020016040519081016040528092919081815260200182805461062090611a9f565b801561066d5780601f106106425761010080835404028352916020019161066d565b820191906000526020600020905b81548152906001019060200180831161065057829003601f168201915b505050505090506000808260405161068591906119dc565b9081526020016040518091039020604051806101000160405290816000820180546106af90611a9f565b80601f01602080910402602001604051908101604052809291908181526020018280546106db90611a9f565b80156107285780601f106106fd57610100808354040283529160200191610728565b820191906000526020600020905b81548152906001019060200180831161070b57829003601f168201915b5050505050815260200160018201805461074190611a9f565b80601f016020809104026020016040519081016040528092919081815260200182805461076d90611a9f565b80156107ba5780601f1061078f576101008083540402835291602001916107ba565b820191906000526020600020905b81548152906001019060200180831161079d57829003601f168201915b505050505081526020016002820180546107d390611a9f565b80601f01602080910402602001604051908101604052809291908181526020018280546107ff90611a9f565b801561084c5780601f106108215761010080835404028352916020019161084c565b820191906000526020600020905b81548152906001019060200180831161082f57829003601f168201915b5050505050815260200160038201805461086590611a9f565b80601f016020809104026020016040519081016040528092919081815260200182805461089190611a9f565b80156108de5780601f106108b3576101008083540402835291602001916108de565b820191906000526020600020905b8154815290600101906020018083116108c157829003601f168201915b505050505081526020016004820180546108f790611a9f565b80601f016020809104026020016040519081016040528092919081815260200182805461092390611a9f565b80156109705780601f1061094557610100808354040283529160200191610970565b820191906000526020600020905b81548152906001019060200180831161095357829003601f168201915b505050505081526020016005820160009054906101000a900473ffffffffffffffffffffffffffffffffffffffff1673ffffffffffffffffffffffffffffffffffffffff1673ffffffffffffffffffffffffffffffffffffffff168152602001600682015481526020016007820160009054906101000a900460ff161515151581525050905080600001518b8481518110610a0e57610a0d611ddb565b5b602002602001018190525080602001518a8481518110610a3157610a30611ddb565b5b60200260200101819052508060400151898481518110610a5457610a53611ddb565b5b60200260200101819052508060600151888481518110610a7757610a76611ddb565b5b60200260200101819052508060800151878481518110610a9a57610a99611ddb565b5b60200260200101819052508060a00151868481518110610abd57610abc611ddb565b5b602002602001019073ffffffffffffffffffffffffffffffffffffffff16908173ffffffffffffffffffffffffffffffffffffffff16815250508060c00151858481518110610b0f57610b0e611ddb565b5b602002602001018181525050505080806001019150506105c1565b505090919293949596565b6060806060806060806000600160008973ffffffffffffffffffffffffffffffffffffffff1673ffffffffffffffffffffffffffffffffffffffff1681526020019081526020016000208054905090508067ffffffffffffffff811115610b9f57610b9e6112f1565b5b604051908082528060200260200182016040528015610bd257816020015b6060815260200190600190039081610bbd5790505b5096508067ffffffffffffffff811115610bef57610bee6112f1565b5b604051908082528060200260200182016040528015610c2257816020015b6060815260200190600190039081610c0d5790505b5095508067ffffffffffffffff811115610c3f57610c3e6112f1565b5b604051908082528060200260200182016040528015610c7257816020015b6060815260200190600190039081610c5d5790505b5094508067ffffffffffffffff811115610c8f57610c8e6112f1565b5b604051908082528060200260200182016040528015610cc257816020015b6060815260200190600190039081610cad5790505b5093508067ffffffffffffffff811115610cdf57610cde6112f1565b5b604051908082528060200260200182016040528015610d1257816020015b6060815260200190600190039081610cfd5790505b5092508067ffffffffffffffff811115610d2f57610d2e6112f1565b5b604051908082528060200260200182016040528015610d5d5781602001602082028036833780820191505090505b50915060005b818110156112b7576000600160008b73ffffffffffffffffffffffffffffffffffffffff1673ffffffffffffffffffffffffffffffffffffffff1681526020019081526020016000208281548110610dbe57610dbd611ddb565b5b906000526020600020018054610dd390611a9f565b80601f0160208091040260200160405190810160405280929190818152602001828054610dff90611a9f565b8015610e4c5780601f10610e2157610100808354040283529160200191610e4c565b820191906000526020600020905b815481529060010190602001808311610e2f57829003601f168201915b5050505050905060008082604051610e6491906119dc565b908152602001604051809103902060405180610100016040529081600082018054610e8e90611a9f565b80601f0160208091040260200160405190810160405280929190818152602001828054610eba90611a9f565b8015610f075780601f10610edc57610100808354040283529160200191610f07565b820191906000526020600020905b815481529060010190602001808311610eea57829003601f168201915b50505050508152602001600182018054610f2090611a9f565b80601f0160208091040260200160405190810160405280929190818152602001828054610f4c90611a9f565b8015610f995780601f10610f6e57610100808354040283529160200191610f99565b820191906000526020600020905b815481529060010190602001808311610f7c57829003601f168201915b50505050508152602001600282018054610fb290611a9f565b80601f0160208091040260200160405190810160405280929190818152602001828054610fde90611a9f565b801561102b5780601f106110005761010080835404028352916020019161102b565b820191906000526020600020905b81548152906001019060200180831161100e57829003601f168201915b5050505050815260200160038201805461104490611a9f565b80601f016020809104026020016040519081016040528092919081815260200182805461107090611a9f565b80156110bd5780601f10611092576101008083540402835291602001916110bd565b820191906000526020600020905b8154815290600101906020018083116110a057829003601f168201915b505050505081526020016004820180546110d690611a9f565b80601f016020809104026020016040519081016040528092919081815260200182805461110290611a9f565b801561114f5780601f106111245761010080835404028352916020019161114f565b820191906000526020600020905b81548152906001019060200180831161113257829003601f168201915b505050505081526020016005820160009054906101000a900473ffffffffffffffffffffffffffffffffffffffff1673ffffffffffffffffffffffffffffffffffffffff1673ffffffffffffffffffffffffffffffffffffffff168152602001600682015481526020016007820160009054906101000a900460ff161515151581525050905080600001518a84815181106111ed576111ec611ddb565b5b602002602001018190525080602001518984815181106112105761120f611ddb565b5b6020026020010181905250806040015188848151811061123357611232611ddb565b5b6020026020010181905250806060015187848151811061125657611255611ddb565b5b6020026020010181905250806080015186848151811061127957611278611ddb565b5b60200260200101819052508060c0015185848151811061129c5761129b611ddb565b5b60200260200101818152505050508080600101915050610d63565b505091939550919395565b6000604051905090565b600080fd5b600080fd5b600080fd5b600080fd5b6000601f19601f8301169050919050565b7f4e487b7100000000000000000000000000000000000000000000000000000000600052604160045260246000fd5b611329826112e0565b810181811067ffffffffffffffff82111715611348576113476112f1565b5b80604052505050565b600061135b6112c2565b90506113678282611320565b919050565b600067ffffffffffffffff821115611387576113866112f1565b5b611390826112e0565b9050602081019050919050565b82818337600083830152505050565b60006113bf6113ba8461136c565b611351565b9050828152602081018484840111156113db576113da6112db565b5b6113e684828561139d565b509392505050565b600082601f830112611403576114026112d6565b5b81356114138482602086016113ac565b91505092915050565b600080600080600060a08688031215611438576114376112cc565b5b600086013567ffffffffffffffff811115611456576114556112d1565b5b611462888289016113ee565b955050602086013567ffffffffffffffff811115611483576114826112d1565b5b61148f888289016113ee565b945050604086013567ffffffffffffffff8111156114b0576114af6112d1565b5b6114bc888289016113ee565b935050606086013567ffffffffffffffff8111156114dd576114dc6112d1565b5b6114e9888289016113ee565b925050608086013567ffffffffffffffff81111561150a576115096112d1565b5b611516888289016113ee565b9150509295509295909350565b600081519050919050565b600082825260208201905092915050565b6000819050602082019050919050565b600081519050919050565b600082825260208201905092915050565b60005b8381101561158957808201518184015260208101905061156e565b60008484015250505050565b60006115a08261154f565b6115aa818561155a565b93506115ba81856020860161156b565b6115c3816112e0565b840191505092915050565b60006115da8383611595565b905092915050565b6000602082019050919050565b60006115fa82611523565b611604818561152e565b9350836020820285016116168561153f565b8060005b85811015611652578484038952815161163385826115ce565b945061163e836115e2565b925060208a0199505060018101905061161a565b50829750879550505050505092915050565b600081519050919050565b600082825260208201905092915050565b6000819050602082019050919050565b600073ffffffffffffffffffffffffffffffffffffffff82169050919050565b60006116bb82611690565b9050919050565b6116cb816116b0565b82525050565b60006116dd83836116c2565b60208301905092915050565b6000602082019050919050565b600061170182611664565b61170b818561166f565b935061171683611680565b8060005b8381101561174757815161172e88826116d1565b9750611739836116e9565b92505060018101905061171a565b5085935050505092915050565b600081519050919050565b600082825260208201905092915050565b6000819050602082019050919050565b6000819050919050565b61179381611780565b82525050565b60006117a5838361178a565b60208301905092915050565b6000602082019050919050565b60006117c982611754565b6117d3818561175f565b93506117de83611770565b8060005b8381101561180f5781516117f68882611799565b9750611801836117b1565b9250506001810190506117e2565b5085935050505092915050565b600060e0820190508181036000830152611836818a6115ef565b9050818103602083015261184a81896115ef565b9050818103604083015261185e81886115ef565b9050818103606083015261187281876115ef565b9050818103608083015261188681866115ef565b905081810360a083015261189a81856116f6565b905081810360c08301526118ae81846117be565b905098975050505050505050565b6118c5816116b0565b81146118d057600080fd5b50565b6000813590506118e2816118bc565b92915050565b6000602082840312156118fe576118fd6112cc565b5b600061190c848285016118d3565b91505092915050565b600060c082019050818103600083015261192f81896115ef565b9050818103602083015261194381886115ef565b9050818103604083015261195781876115ef565b9050818103606083015261196b81866115ef565b9050818103608083015261197f81856115ef565b905081810360a083015261199381846117be565b9050979650505050505050565b600081905092915050565b60006119b68261154f565b6119c081856119a0565b93506119d081856020860161156b565b80840191505092915050565b60006119e882846119ab565b915081905092915050565b600082825260208201905092915050565b7f506174656e7420616c7265616479206578697374732100000000000000000000600082015250565b6000611a3a6016836119f3565b9150611a4582611a04565b602082019050919050565b60006020820190508181036000830152611a6981611a2d565b9050919050565b7f4e487b7100000000000000000000000000000000000000000000000000000000600052602260045260246000fd5b60006002820490506001821680611ab757607f821691505b602082108103611aca57611ac9611a70565b5b50919050565b60008190508160005260206000209050919050565b60006020601f8301049050919050565b600082821b905092915050565b600060088302611b327fffffffffffffffffffffffffffffffffffffffffffffffffffffffffffffffff82611af5565b611b3c8683611af5565b95508019841693508086168417925050509392505050565b6000819050919050565b6000611b79611b74611b6f84611780565b611b54565b611780565b9050919050565b6000819050919050565b611b9383611b5e565b611ba7611b9f82611b80565b848454611b02565b825550505050565b600090565b611bbc611baf565b611bc7818484611b8a565b505050565b5b81811015611beb57611be0600082611bb4565b600181019050611bcd565b5050565b601f821115611c3057611c0181611ad0565b611c0a84611ae5565b81016020851015611c19578190505b611c2d611c2585611ae5565b830182611bcc565b50505b505050565b600082821c905092915050565b6000611c5360001984600802611c35565b1980831691505092915050565b6000611c6c8383611c42565b9150826002028217905092915050565b611c858261154f565b67ffffffffffffffff811115611c9e57611c9d6112f1565b5b611ca88254611a9f565b611cb3828285611bef565b600060209050601f831160018114611ce65760008415611cd4578287015190505b611cde8582611c60565b865550611d46565b601f198416611cf486611ad0565b60005b82811015611d1c57848901518255600182019150602085019450602081019050611cf7565b86831015611d395784890151611d35601f891682611c42565b8355505b6001600288020188555050505b505050505050565b6000611d598261154f565b611d6381856119f3565b9350611d7381856020860161156b565b611d7c816112e0565b840191505092915050565b611d9081611780565b82525050565b60006060820190508181036000830152611db08186611d4e565b90508181036020830152611dc48185611d4e565b9050611dd36040830184611d87565b949350505050565b7f4e487b7100000000000000000000000000000000000000000000000000000000600052603260045260246000fdfea264697066735822122043f1cf07348f8b3b05d98581cc0bfa0381f10e807fc39290c075bb375796ab9364736f6c634300081c0033",
  "linkReferences": {},
  "deployedLinkReferences": {}
}